:100000000C942A000C9434000C9434000C943400AA
:100010000C9434000C9434000C9434000C94340090
:100020000C9434000C9434000C9434000C94340080
:100030000C9434000C9434000C9434000C94340070
:100040000C9434000C9434000C9434000C94340060
:100050000C94340011241FBECFE5D4E0DEBFCDBF29
:100060000E9436000C9473000C9400008FEF84BB48
:1000700085E08EBD2DE231E34FEF3DBD2CBD8CB54B
:100080009DB5845690409DBD8CBD8CB59DB5892B8A
:10009000B1F745BB3DBD2CBD8CB59DB58456904098
:1000A0009DBD8CBD8CB59DB5892BB1F715BA3DBDF5
:1000B0002CBD8CB59DB5845690409DBD8CBD8CB536
:1000C0009DB5892BB1F7D9CF8DE291E39DBD8CBD54
:1000D0008CB59DB5845690409DBD8CBD8CB59DB5AD
:0A00E000892BB1F70895F894FFCFC3
:00000001FF
