:100000000C942A000C9447000C9447000C94470071
:100010000C9447000C9447000C9454010C94470036
:100020000C9447000C9447000C9447000C94470034
:100030000C9447000C9447000C9447000C94470024
:100040000C9447000C9447000C9447000C94470014
:100050000C94470011241FBECFE5D4E0DEBFCDBF16
:1000600010E0A0E6B0E0E4EDF3E002C005900D92F0
:10007000A837B107D9F710E0A8E7B0E001C01D929A
:10008000AB37B107E1F70E94B2000C94E8010C9481
:10009000000088BBAE98AD98AF9A82E08A95F1F7E0
:1000A000AF9885E88A95F1F7089588BBAE98AD9A28
:1000B000AF9A82E08A95F1F7AF9885E88A95F1F7D3
:1000C00008950F931F938FEF84BB15BA87BB18BA9F
:1000D00000E117E2C8010197F1F788E30E944900A7
:1000E0008CE00E94490081E00E944900C80101970C
:1000F000F1F786E00E9449001F910F910895DF9368
:10010000CF9300D000D0CDB7DEB790E8998390ECC4
:100110009A8394E99B8394ED9C836150FE01E80FE0
:10012000F11D8081860F0E94490080E197E20197CE
:10013000F1F70F900F900F900F90CF91DF910895EE
:100140001F93CF93DF93EC0103C00E9455001F5F04
:10015000FE01E10FF11D80818823B9F7DF91CF9176
:100160001F9108950E94610081E063E00E947F007A
:1001700080E690E00E94A00082E064E00E947F00A0
:100180008EE690E00E94A00088E185BB8CE08EBDE9
:1001900088E09DE39BBD8ABD80E189BF789424E619
:1001A00030E083B383B384EC99E0F9013197F1F740
:1001B0000197B9F3FACFEF92FF921F9382E064E0C8
:1001C0000E947F00809178006AE00E94970190E091
:1001D00010E0612F70E04AE050E00E94A301812FFF
:1001E00090E00E94A000809178006AE00E94970150
:1001F000892F90E0612F70E04AE050E00E94A30157
:10020000812F90E00E94A0008CE6E82E80E0F82E7E
:10021000C7010E94A000809179006AE00E949701C6
:1002200090E0612F70E04AE050E00E94A301812F2E
:1002300090E00E94A000809179006AE00E949701FE
:10024000892F90E0612F70E04AE050E00E94A30106
:10025000812F90E00E94A000C7010E94A000809121
:100260007A006AE00E94970190E0612F70E04AE016
:1002700050E00E94A301812F90E00E94A000809195
:100280007A006AE00E949701892F90E0612F70E068
:100290004AE050E00E94A301812F90E00E94A0005C
:1002A0001F91FF90EF9008951F920F920FB60F923B
:1002B00011242F933F934F935F936F937F938F936B
:1002C0009F93AF93BF93EF93FF9380917A008F5FDB
:1002D00080937A008C3339F410927A0080917900FF
:1002E0008F5F80937900809179008C3339F410927C
:1002F0007900809178008F5F8093780080917800FA
:10030000883110F0109278000E94DB00FF91EF918D
:10031000BF91AF919F918F917F916F915F914F911D
:100320003F912F910F900FBE0F901F901895991B22
:1003300079E004C0991F961708F0961B881F7A95DC
:10034000C9F780950895FB019F01E8944230C4F0FD
:100350004532B4F44A3029F497FB1EF49095819508
:100360009F4F642F77270E94D401805D8A330CF061
:10037000895D8193CB010097A1F716F45DE251935B
:100380001082C9010C94C401DC01FC01672F71913A
:100390007723E1F7329704C07C916D93708362916B
:1003A000AE17BF07C8F30895AA1BBB1B51E107C0D6
:1003B000AA1FBB1FA617B70710F0A61BB70B881FF5
:1003C000991F5A95A9F780959095BC01CD01089584
:0403D000F894FFCFCF
:1003D4004145524F4641524D494E47003A00303054
:0803E4003A30303A30300000DD
:00000001FF
