:100000000C942A000C9447000C9447000C94470071
:100010000C9447000C9447000C9447000C94470044
:100020000C9447000C9447000C9447000C94470034
:100030000C9447000C9447000C9447000C94470024
:100040000C9447000C9447000C9447000C94470014
:100050000C94470011241FBECFE5D4E0DEBFCDBF16
:1000600011E0A0E6B0E0E2E9F6E102C005900D92F1
:10007000A637B107D9F711E0A6E7B1E001C01D929C
:10008000A638B107E1F70E9484020C94470B0C9448
:10009000000080E487B987E886B9089597B1907E1B
:1000A00097B997B18770892B87B9369A349BFECF61
:1000B000349A24B135B1C901089581EA8FBD83E036
:1000C0008EBDB99ABA9A81B38F6081BB08951F9390
:1000D000882319F49098919809C0823019F4909867
:1000E000919A04C0813011F49198909A1FB7F894B6
:1000F00070E080E090E00E94A20820E030E04FE74E
:1001000053E40E94540620E030E048E453E40E94A7
:100110005A050E94840370E07BBD6ABD1FBF1F911A
:1001200008951F93882319F49298939809C08230F8
:1001300019F49298939A04C0813011F49398929A8A
:100140001FB7F89470E080E090E00E94A20820E0E1
:1001500030E04FE753E40E94540620E030E048E4EA
:1001600053E40E945A050E94840370E079BD68BD83
:100170001FBF1F91089581B3806F81BBB89A82B36E
:10018000806F82BBC09A08958630A8F426E0281BB1
:10019000213011F4C09A0895263069F042B330E05E
:1001A0002E5F3F4F81E090E002C0880F991F2A9593
:1001B000E2F7482B42BB08958630B0F426E0281BB6
:1001C000213011F4C0980895263071F042B330E028
:1001D0002E5F3F4F81E090E002C0880F991F2A9563
:1001E000E2F78095842382BB089590E02AEF30E007
:1001F00004C0F9013197F1F79F5F9817D0F3089584
:100200006F927F928F929F92AF92BF92CF92DF9226
:10021000EF92FF920F931F937B018C01CA01B901EA
:10022000A80197010E94FC045B016C0160917601BA
:100230007091770180917801909179010E94F00787
:100240003B014C01C601B501209160003091610075
:1002500040916200509163000E945A057B018C011D
:10026000C401B301209164003091650040916600A3
:10027000509167000E945A059B01AC01C801B7016B
:100280000E942D057B018C0160917A0170917B01A8
:1002900080917C0190917D010E94F0079B01AC014F
:1002A000C601B5010E94FC042091680030916900EC
:1002B00040916A0050916B000E945A059B01AC016D
:1002C000C801B7010E942D057B018C01C401B30157
:1002D000A60195010E942D050E944E0860937601AB
:1002E000709377018093780190937901C601B501ED
:1002F0000E944E0860937A0170937B0180937C0189
:1003000090937D01B701C8011F910F91FF90EF906D
:10031000DF90CF90BF90AF909F908F907F906F9025
:1003200008953F924F925F926F927F928F929F9229
:10033000AF92BF92CF92DF92EF92FF920F931F93F3
:1003400084E00E944E008152934030F085E00E948C
:10035000DC00AA24A39404C085E00E94C400AA245F
:1003600083E00E944E008152934030F084E00E946E
:10037000DC00EE24E39404C084E00E94C400EE2478
:1003800082E00E944E008152934028F083E00E9458
:10039000DC0001E004C083E00E94C40000E081E0D2
:1003A0000E944E008152934028F082E00E94DC00BF
:1003B00011E004C082E00E94C40010E080E00E94CE
:1003C0004E008152934030F081E00E94DC003324E3
:1003D000339411C081E00E94C400112359F400231A
:1003E00049F4EE2039F4AA2029F4E0E070E08FE728
:1003F00063E474C03324412E5524602E7724FF24F7
:100400008A2C9924632D70E080E090E00E94A2087D
:100410005B016C01B201660F771F882777FD80951D
:10042000982F0E94F0079B01AC01C601B5010E9404
:100430002D055B016C01B301660F771F660D771DFB
:10044000882777FD8095982F0E94F0079B01AC01CB
:10045000C601B5010E942D055B016C01B701660F55
:10046000771F660F771F882777FD8095982F0E944A
:10047000F0079B01AC01C601B5010E942D055B018F
:100480006C01B401660F771F660F771F680D791D29
:10049000882777FD8095982F0E94F0079B01AC017B
:1004A000C601B5010E942D055B016C01E80CF91C29
:1004B000E60CF71CE40CF51CE30CF11C0027F7FC20
:1004C0000095102FC801B7010E94F0079B01AC01F5
:1004D000C601B5010E945406E62F692F2E2F372F33
:1004E000482F562FB901CA011F910F91FF90EF902D
:1004F000DF90CF90BF90AF909F908F907F906F9044
:100500005F904F903F900895EF92FF920F931F934B
:10051000CF93DF930E945D000E94BB0080E487B907
:1005200087E886B9CAEFD0E00E949101609382010A
:1005300070938301809384019093850120E030E0E3
:100540004FE753E40E940007882341F4E0928201C0
:10055000F0928301009384011093850160918201E0
:1005600070918301809184019091850120E030E0B9
:1005700040E450E40E94000160937E0170937F018B
:10058000809380019093810120E030E04FEF53E4AD
:100590000E943007181664F480E090E0AFEFB3E4F7
:1005A00080937E0190937F01A0938001B09381019D
:1005B00060917E0170917F01809180019091810115
:1005C00020E030E04FEF53EC0E949007882364F462
:1005D00080E090E0AFEFB3EC80937E0190937F01D9
:1005E000A0938001B0938101E0907E01F0907F01A3
:1005F0000091800110918101C801B70120E030E035
:1006000040E050E00E943007181664F5C801B701B9
:1006100020E030E04FE753E40E943007181674F4EE
:10062000C801B70120E030E04FE753E40E94FC042A
:100630000E9484039B01AC0181E00DC060E070E08A
:100640008FE793E4A80197010E94FC040E948403B1
:100650009B01AC0182E0622F0E94670081E06FEF96
:100660000E949100E0907E01F0907F010091800156
:1006700010918101C801B70120E030E040E050E076
:100680000E94C00718166CF1C801B70120E030E0E5
:100690004FE753EC0E94900788237CF4C801B70110
:1006A00020E030E04FE753E40E942D0590580E946F
:1006B00084039B01AC0182E00DC0C801B70120E0BA
:1006C00030E04FE753E40E942D050E9484039B0114
:1006D000AC0181E0622F0E94910082E06FEF0E94E6
:1006E000670030916C0020E004C0CE010197F1F763
:1006F0002F5F2317D0F3E0908201F09083010091E7
:1007000084011091850110CFEF92FF920F931F93F8
:100710007B018C0120E030E040E05FE40E94600754
:1007200088238CF0C801B70120E030E040E05FE4AE
:100730000E94FC040E944E089B01AC0120503040F6
:100740004040504806C0C801B7010E944E089B01B6
:10075000AC01B901CA011F910F91FF90EF9008956C
:10076000A0E0B0E0E6EBF3E00C94100BDC012B0111
:10077000FA019C91923008F439C1EB0188818230F2
:1007800008F433C1943069F4843009F02FC1119614
:100790009C9111978981981709F428C1AEE6B0E0C1
:1007A00025C1843009F421C18230A9F4923009F0C6
:1007B0001DC19A01AD0188E0EA010990AE01E9018D
:1007C00009929E018150C1F7E201898111969C91A5
:1007D0008923818308C1923009F407C112962D90B4
:1007E0003C901397EB018A819B811496AD90BD904C
:1007F000CD90DC901797EC80FD800E811F819101D8
:10080000281B390BB90137FF04C066277727621B05
:10081000730B603271050CF061C0121613066CF593
:1008200037014801062E04C0969487947794679404
:100830000A94D2F721E030E040E050E004C0220FFB
:10084000331F441F551F6A95D2F721503040404056
:1008500050402E213F2140235123211531054105D0
:10086000510521F021E030E040E050E079018A01BB
:10087000E628F728082919293CC0232BD1F1260E98
:10088000371E35014601062E04C09694879477944E
:1008900067940A94D2F721E030E040E050E004C0D1
:1008A000220F331F441F551F6A95D2F72150304045
:1008B000404050402A213B214C215D21211531052A
:1008C0004105510521F021E030E040E050E05901C0
:1008D0006A01A628B728C828D9280BC08215930515
:1008E0002CF01C01AA24BB24650103C0EE24FF24C4
:1008F000870111969C91D20111968C91981709F459
:1009000045C0992339F0A80197012A193B094C09E0
:100910005D0906C0A60195012E193F09400B510B38
:1009200057FD08C011823382228224833583468397
:1009300057831DC081E081833382228288279927D3
:10094000DC01821B930BA40BB50B84839583A683D8
:10095000B7830DC0220F331F441F551F24833583D7
:100960004683578382819381019793838283248175
:10097000358146815781DA01C9010197A109B10981
:100980008F5F9F4FAF4FBF4328F30BC091833382DC
:100990002282EA0CFB1C0C1D1D1DE482F5820683DD
:1009A000178383E08083248135814681578157FFF7
:1009B0001AC0C901AA2797FDA095BA2F817090701F
:1009C000A070B0705695479537952795822B932B3D
:1009D000A42BB52B84839583A683B78382819381CF
:1009E000019693838283DF0101C0D201CD01CDB78F
:1009F000DEB7E2E10C942C0BA0E2B0E0E2E0F5E01F
:100A00000C941C0B69837A838B839C832D833E8398
:100A10004F835887E9E0EE2EF12CEC0EFD1ECE013F
:100A20000196B7010E943F0A8E010F5E1F4FCE0153
:100A30000596B8010E943F0A8A8991E089278A8B2E
:100A4000C701B801AE01475E5F4F0E94B0030E942C
:100A50006A09A096E6E00C94380BA0E2B0E0E3E36C
:100A6000F5E00C941C0B69837A838B839C832D8324
:100A70003E834F835887F9E0EF2EF12CEC0EFD1EDC
:100A8000CE010196B7010E943F0A8E010F5E1F4FF3
:100A9000CE010596B8010E943F0AC701B801AE0118
:100AA000475E5F4F0E94B0030E946A09A096E6E08D
:100AB0000C94380BA0E2B0E0E0E6F5E00C94100BEB
:100AC00069837A838B839C832D833E834F835887EE
:100AD000CE010196BE01675F7F4F0E943F0ACE01A3
:100AE0000596BE016F5E7F4F0E943F0A9985923046
:100AF00088F089898230C8F0943019F4823051F43A
:100B000004C0843029F4923081F48EE690E0C6C0AF
:100B1000923049F420E09A858A89981321E02A8747
:100B2000CE010996BBC0823049F420E09A858A89BB
:100B3000981321E02A8BCE014196B0C02D843E84CB
:100B40004F8458886D887E888F88988CEE24FF2487
:100B50008701AA24BB24650140E050E060E070E01A
:100B6000E0E0F0E0C10181709070892BE9F0E60CC3
:100B7000F71C081D191D9A01AB012A0D3B1D4C1DC8
:100B80005D1D80E090E0A0E0B0E0E614F704080509
:100B9000190520F481E090E0A0E0B0E0BA01A901DD
:100BA000480F591F6A1F7B1FAA0CBB1CCC1CDD1CE5
:100BB00097FE08C081E090E0A0E0B0E0A82AB92A42
:100BC000CA2ADB2A3196E032F10549F0660C771C1F
:100BD000881C991C5694479437942794C3CFFA8560
:100BE000EA892B893C898B859C85280F391F2E5FCC
:100BF0003F4F17C0CA0181709070892B61F0169524
:100C00000795F794E79480E090E0A0E0B0E8E82A48
:100C1000F92A0A2B1B2B76956795579547952F5FD9
:100C20003F4F77FDE7CF0CC0440F551F661F771F5E
:100C300017FD4160EE0CFF1C001F111F21503040BA
:100C4000403090E0590790E0690790E4790760F33D
:100C50002B8F3C8FDB01CA018F779070A070B07032
:100C600080349105A105B10561F447FD0AC0E11486
:100C7000F1040105110529F0405C5F4F6F4F7F4F74
:100C800040781A8EFE1711F081E08A8F4D8F5E8FAB
:100C90006F8F78A383E0898FCE0149960E946A09FD
:100CA000A096E2E10C942C0BA8E1B0E0EAE5F6E0B6
:100CB0000C94180B69837A838B839C832D833E83EA
:100CC0004F835887B9E0EB2EF12CEC0EFD1ECE01C0
:100CD0000196B7010E943F0A8E010F5E1F4FCE01A1
:100CE0000596B8010E943F0A2985223008F47EC08B
:100CF0003989323010F4B8017CC08A859A898927F5
:100D00008A87243011F0223031F4231709F06EC0A5
:100D10006EE670E06EC0343039F41D861E861F8684
:100D2000188A1C861B8604C0323021F484E089872F
:100D3000B7015FC02B853C858B899C89281B390BAB
:100D40003C872B87ED84FE840F851889AD88BE888B
:100D5000CF88D88CEA14FB040C051D0540F4EE0C7A
:100D6000FF1C001F111F215030403C872B8720E0C3
:100D700030E040E050E080E090E0A0E0B0E460E0EF
:100D800070E0EA14FB040C051D0540F0282B392BFC
:100D90004A2B5B2BEA18FB080C091D09B695A79591
:100DA00097958795EE0CFF1C001F111F6F5F7F4FFB
:100DB0006F31710531F7DA01C9018F779070A0703A
:100DC000B07080349105A105B10561F427FD0AC01A
:100DD000E114F1040105110529F0205C3F4F4F4F4C
:100DE0005F4F20782D873E874F87588BBE01675F06
:100DF0007F4FCB010E946A096896EAE00C94340B9D
:100E0000A8E1B0E0E6E0F7E00C941C0B69837A837C
:100E10008B839C832D833E834F83588789E0E82E04
:100E2000F12CEC0EFD1ECE010196B7010E943F0A87
:100E30008E010F5E1F4FCE010596B8010E943F0A3A
:100E40008985823040F08989823028F0C701B80155
:100E50000E94B70A01C081E06896E6E00C94380B66
:100E6000A8E1B0E0E6E3F7E00C941C0B69837A8319
:100E70008B839C832D833E834F83588789E0E82EA4
:100E8000F12CEC0EFD1ECE010196B7010E943F0A27
:100E90008E010F5E1F4FCE010596B8010E943F0ADA
:100EA0008985823040F08989823028F0C701B801F5
:100EB0000E94B70A01C08FEF6896E6E00C94380BE9
:100EC000A8E1B0E0E6E6F7E00C941C0B69837A83B6
:100ED0008B839C832D833E834F83588789E0E82E44
:100EE000F12CEC0EFD1ECE010196B7010E943F0AC7
:100EF0008E010F5E1F4FCE010596B8010E943F0A7A
:100F00008985823040F08989823028F0C701B80194
:100F10000E94B70A01C08FEF6896E6E00C94380B88
:100F2000A8E1B0E0E6E9F7E00C941C0B69837A8352
:100F30008B839C832D833E834F83588789E0E82EE3
:100F4000F12CEC0EFD1ECE010196B7010E943F0A66
:100F50008E010F5E1F4FCE010596B8010E943F0A19
:100F60008985823040F08989823028F0C701B80134
:100F70000E94B70A01C081E06896E6E00C94380B45
:100F8000A8E1B0E0E6ECF7E00C941C0B69837A83EF
:100F90008B839C832D833E834F83588789E0E82E83
:100FA000F12CEC0EFD1ECE010196B7010E943F0A06
:100FB0008E010F5E1F4FCE010596B8010E943F0AB9
:100FC0008985823040F08989823028F0C701B801D4
:100FD0000E94B70A01C081E06896E6E00C94380BE5
:100FE000A8E0B0E0E6EFF7E00C94190B9B01AC0130
:100FF00083E08983DA01C9018827B7FD83959927A2
:10100000AA27BB27B82E211531054105510519F432
:1010100082E089833AC08823A9F0203080E0380735
:1010200080E0480780E8580729F460E070E080E03D
:101030009FEC30C0EE24FF248701E21AF30A040B70
:10104000150B02C079018A018EE1C82ED12CDC82F9
:10105000CB82ED82FE820F831887C801B7010E9400
:101060001B0901971816190684F4082E04C0EE0C0B
:10107000FF1C001F111F0A94D2F7ED82FE820F831E
:101080001887C81AD90ADC82CB82BA82CE010196AF
:101090000E946A092896E9E00C94350BACE0B0E0B8
:1010A000E4E5F8E00C94200B69837A838B839C83BE
:1010B000CE010196BE016B5F7F4F0E943F0A8D817A
:1010C000823061F1823050F1843021F48E818823A6
:1010D00051F12EC02F81388537FD20C06E812F3110
:1010E00031051CF06623F9F023C08EE190E0821BED
:1010F000930B29853A854B855C8504C056954795A9
:10110000379527958A95D2F76623B1F0509540958B
:10111000309521953F4F4F4F5F4F0EC020E030E09C
:1011200040E050E009C02FEF3FEF4FEF5FE704C012
:1011300020E030E040E050E8B901CA012C96E2E03E
:101140000C943C0BA8E0B0E0E8EAF8E00C94180B33
:101150007B018C01611571058105910519F482E00F
:10116000898360C083E089838EE1C82ED12CDC8224
:10117000CB82ED82FE820F831887C801B7010E94DF
:101180001B09FC013197F7FF3BC0222733272E1B99
:101190003F0B57016801022E04C0D694C794B79440
:1011A000A7940A94D2F740E050E060E070E081E05C
:1011B00090E0A0E0B0E004C0880F991FAA1FBB1FF9
:1011C0002A95D2F70197A109B1098E219F21A02369
:1011D000B1230097A105B10521F041E050E060E0A6
:1011E00070E04A295B296C297D294D835E836F83DA
:1011F00078878EE190E08E1B9F0B9C838B8312C0BF
:10120000309781F00E2E04C0EE0CFF1C001F111F42
:101210000A94D2F7ED82FE820F831887CE1ADF0A76
:10122000DC82CB821A82CE0101960E946A0928963E
:10123000EAE00C94340BEF92FF920F931F937B0123
:101240008C0180E0E81680E0F80681E0080780E085
:10125000180788F48FEFE816F1040105110531F045
:1012600028F088E090E0A0E0B0E017C080E090E0D7
:10127000A0E0B0E012C080E0E81680E0F80680E070
:10128000080781E0180728F088E190E0A0E0B0E0CE
:1012900004C080E190E0A0E0B0E020E230E040E077
:1012A00050E0281B390B4A0B5B0B04C016950795C1
:1012B000F794E7948A95D2F7F701EA58FF4F8081B7
:1012C000281B310941095109C9011F910F91FF9054
:1012D000EF900895DF92EF92FF920F931F93FC011E
:1012E000E480F58006811781D1808081823048F4C6
:1012F00080E090E0A0E1B0E0E82AF92A0A2B1B2B5D
:10130000A5C0843009F49FC0823021F4EE24FF246C
:10131000870105C0E114F1040105110519F4E0E0AD
:10132000F0E096C0628173819FEF623879070CF01C
:101330005BC022E83FEF261B370B2A3131052CF02A
:1013400020E030E040E050E02AC0B801A701022EC2
:1013500004C076956795579547950A94D2F781E032
:1013600090E0A0E0B0E004C0880F991FAA1FBB1F47
:101370002A95D2F70197A109B1098E219F21A023B7
:10138000B1230097A105B10521F081E090E0A0E034
:10139000B0E09A01AB01282B392B4A2B5B2BDA01E9
:1013A000C9018F779070A070B07080349105A1054D
:1013B000B10539F427FF09C0205C3F4F4F4F5F4F05
:1013C00004C0215C3F4F4F4F5F4FE0E0F0E0203022
:1013D000A0E03A07A0E04A07A0E45A0710F0E1E0D5
:1013E000F0E079018A0127C06038710564F5FB01DE
:1013F000E158FF4FD801C7018F779070A070B0708F
:1014000080349105A105B10539F4E7FE0DC080E4F3
:1014100090E0A0E0B0E004C08FE390E0A0E0B0E096
:10142000E80EF91E0A1F1B1F17FF05C0169507952A
:10143000F794E794319687E016950795F794E7942B
:101440008A95D1F705C0EE24FF248701EFEFF0E085
:101450006E2F679566276795902F9F77D794DD2429
:10146000D7948E2F8695492F462B582F5D29B7018B
:10147000CA011F910F91FF90EF90DF900895FC013A
:10148000DB01408151812281622F6F7770E0221F42
:101490002227221F9381892F880F822B282F30E04B
:1014A000991F9927991F11969C9311972115310522
:1014B000A9F5411551056105710511F482E037C0A8
:1014C00082E89FEF13969C938E9312979A01AB013B
:1014D00067E0220F331F441F551F6A95D1F783E041
:1014E0008C930DC0220F331F441F551F12968D91F0
:1014F0009C911397019713969C938E93129720308B
:1015000080E0380780E0480780E4580758F31496D5
:101510002D933D934D935C93179708952F3F31057D
:1015200079F4411551056105710519F484E08C9336
:10153000089564FF03C081E08C9312C01C9210C018
:101540002F57304013963C932E93129783E08C9341
:1015500087E0440F551F661F771F8A95D1F7706487
:1015600014964D935D936D937C93179708951F93F5
:10157000DC01FB019C91923008F447C080818230ED
:1015800008F443C0943051F411961C91843099F5BD
:101590008181682F70E0611B71093FC0843021F0A8
:1015A000923031F48230B9F18181882389F12DC0E4
:1015B00011961C9111978230F1F081811817D9F49E
:1015C00012962D913C9113978281938182179307F4
:1015D00094F028173907BCF014968D919D910D90C9
:1015E000BC91A02D24813581468157812817390768
:1015F0004A075B0718F4112341F00AC082179307CA
:10160000A407B50740F4112319F061E070E005C0AC
:101610006FEF7FEF02C060E070E0CB011F91089593
:101620002F923F924F925F926F927F928F929F92F2
:10163000AF92BF92CF92DF92EF92FF920F931F93E0
:10164000CF93DF93CDB7DEB7CA1BDB0B0FB6F89491
:10165000DEBF0FBECDBF09942A88398848885F84D1
:101660006E847D848C849B84AA84B984C884DF8042
:10167000EE80FD800C811B81AA81B981CE0FD11D26
:101680000FB6F894DEBF0FBECDBFED010895F894FC
:02169000FFCF8A
:1016920000004843CDCC4C3E0000F0420A0000005E
:1016A200000000000000000102020303030304041F
:1016B20004040404040405050505050505050505DE
:1016C20005050505050506060606060606060606BE
:1016D20006060606060606060606060606060606A8
:1016E200060606060606070707070707070707078E
:1016F2000707070707070707070707070707070778
:101702000707070707070707070707070707070767
:101712000707070707070707070707070707070757
:10172200070707070707080808080808080808083D
:101732000808080808080808080808080808080827
:101742000808080808080808080808080808080817
:101752000808080808080808080808080808080807
:1017620008080808080808080808080808080808F7
:1017720008080808080808080808080808080808E7
:1017820008080808080808080808080808080808D7
:1017920008080808080808080808080808080808C7
:0617A20008080808080811
:00000001FF
