:100000000C942A000C943F000C943F000C943F0089
:100010000C943F000C943F000C943F000C943F0064
:100020000C943F000C943F000C943F000C943F0054
:100030000C943F000C943F000C943F000C943F0044
:100040000C943F000C943F000C943F000C943F0034
:100050000C943F0011241FBECFE5D4E0DEBFCDBF1E
:1000600010E0A0E6B0E0E8E7F3E002C005900D92F2
:10007000AC37B107D9F70E94D4000C94BA010C94A4
:100080000000282F207F28BBC098C198C29A2AEF71
:1000900030E0F9013197F1F7C298F9013197F1F7A2
:1000A00090E044E0880F991F4A95E1F788BBC0981B
:1000B000C198C29AC9010197F1F7C298C901019785
:1000C000F1F7089582E00E94410088E20E94410019
:1000D00086E00E9441008CE00E9441000895282F94
:1000E000207F28BBC09AC198C29A2AEF30E0F9015C
:1000F0003197F1F7C298F9013197F1F790E054E0A8
:10010000880F991F5A95E1F788BBC09AC198C29A87
:10011000C9010197F1F7C298C9010197F1F7089554
:100120001F93CF93DF93EC0110E003C00E946F0098
:100130001F5FFE01E10FF11D80818823B9F7DF9178
:10014000CF911F910895CF93DF93EC0184E00E943B
:100150004100209791F480E30E946F000EC0CE0111
:100160006AE070E00E94A601805D0E946F00CE01EF
:100170006AE070E00E94A601EB01209781F786E01B
:100180000E944100DF91CF91089580E487B987E80C
:1001900086B90895806487B9369A349BFECF349A25
:1001A00024B135B1C90108950F931F93CF93DF9305
:1001B0001ABA8FEF87BB81BB0E94620080E487B9C7
:1001C00087E886B908EA11E680E80E94410080E6E7
:1001D00090E00E94900080E00E94CA009C01CC97B1
:1001E000059718F4C4E1D0E09AC0C9018154904049
:1001F000059718F4C3E1D0E092C0C901865490403D
:10020000059718F4C2E1D0E08AC0C9018B54904030
:10021000059718F4C1E1D0E082C0C9018055904033
:10022000059718F4C0E1D0E07AC0C9018555904027
:10023000079718F4CFE0D0E072C0C9018C55904008
:10024000079718F4CEE0D0E06AC0C901805690400C
:10025000419718F4CCE0D0E062C0C90181579040CA
:10026000079718F4CBE0D0E05AC0C90188579040F6
:10027000809718F4CAE0D0E052C0C9018859904074
:10028000809718F4C9E0D0E04AC0C901885B90406B
:10029000809718F4C8E0D0E042C0C901885D904062
:1002A000809718F4C7E0D0E03AC0C901885F904059
:1002B000809718F4C6E0D0E032C0C901885191405F
:1002C0008A38910518F4C5E0D0E029C0C901825AE6
:1002D00091408A38910518F4C4E0D0E020C0C901EB
:1002E0008C5292408A38910518F4C3E0D0E017C0D0
:1002F000C901865B92408A38910518F4C2E0D0E0CB
:100300000EC0C901805493408737910518F4C1E0AD
:10031000D0E005C0275B334098F0C0E0D0E08DE826
:100320000E944100CE010E94A3008EE80E9441007D
:1003300081E790E00E949000C8010197F1F744CF57
:100340008BE80E94410084E790E0F4CFAA1BBB1B1E
:1003500051E107C0AA1FBB1FA617B70710F0A61BC5
:10036000B70B881F991F5A95A9F780959095BC01E6
:08037000CD010895F894FFCFC0
:1003780044697374616E63653A2020202020202030
:0C03880000636D006572726F722020002F
:00000001FF
