:100000000C942A000C943C000C94FC000C943C00D2
:100010000C943C000C943C000C943C000C943C0070
:100020000C943C000C943E000C943C000C943C005E
:100030000C943C000C943C000C943C000C943C0050
:100040000C943C000C943C000C943C000C943C0040
:100050000C943C0011241FBECFE5D4E0DEBFCDBF21
:1000600010E0A0E6B0E001C01D92AD36B107E1F7A7
:100070000E9483010C94D1010C9400001F920F92F6
:100080000FB60F9211248F939F93AF93BF938091DC
:100090006400882399F08091690090916A00A09192
:1000A0006B00B0916C000196A11DB11D8093690099
:1000B00090936A00A0936B00B0936C00BF91AF91D6
:1000C0009F918F910F900FBE0F901F901895809168
:1000D000600090916100A0916200B09163001816D9
:1000E00019061A061B0674F4809160009091610055
:1000F000A0916200B09163004097A105B10514F48E
:1001000081E068C08091600090916100A0916200E0
:10011000B09163004097A105B10574F08091600033
:1001200090916100A0916200B09163004F97A1058A
:10013000B10514F482E04EC080916000909161009E
:10014000A0916200B09163004F97A105B10574F0D2
:100150008091600090916100A0916200B091630075
:100160008E97A105B10514F484E034C0809160003D
:1001700090916100A0916200B09163008E97A105FB
:10018000B10574F08091600090916100A0916200CF
:10019000B0916300CD97A105B10514F488E01AC0B1
:1001A0008091600090916100A0916200B091630025
:1001B000CD97A105B10584F0809160009091610018
:1001C000A0916200B09163008C349105A105B10546
:1001D0001CF480E188BB08958091600090916100DB
:1001E000A0916200B09163008C349105A105B10526
:1001F00014F080E288BB08951F920F920FB60F9201
:1002000011242F933F934F935F936F937F938F931B
:100210009F93AF93BF93EF93FF938091650090916D
:100220006600A0916700B09168000097A105B10534
:1002300009F441C080916400882381F481E08093B7
:1002400064001092690010926A0010926B00109284
:100250006C0083B7816083BF12BE2DC01092640012
:100260006091690070916A0080916B0090916C00C0
:1002700022B7982F872F762F6627620F711D811D59
:10028000911D2AE330E040E050E00E94AF01C90137
:10029000DA018093600090936100A0936200B093B4
:1002A00063000E9467001092650010926600109231
:1002B000670010926800FF91EF91BF91AF919F91FD
:1002C0008F917F916F915F914F913F912F910F90FF
:1002D0000FBE0F901F90189512BA8DE08A95F1F716
:1002E00080EF82BB81E090E0A0E0B0E08093650009
:1002F00090936600A0936700B09368008AE18A95A6
:10030000F1F712BA0895CF93DF9380EF81BB12BA51
:100310008FEF87BB18BA8ABB1BBA85B7846085BFCD
:100320008BB780688BBF89B7816089BF7894C8EC30
:10033000D0E08091650090916600A0916700B09137
:1003400068000197A105B105A1F788E592E0FE01DB
:100350003197F1F70197D9F70E946C01EACFA1E23A
:100360001A2EAA1BBB1BFD010DC0AA1FBB1FEE1F2F
:10037000FF1FA217B307E407F50720F0A21BB30B7A
:10038000E40BF50B661F771F881F991F1A9469F7F6
:1003900060957095809590959B01AC01BD01CF0152
:0603A0000895F894FFCF60
:00000001FF
