:100000000C942A000C943C000C946C000C943C0062
:100010000C943C000C943C000C943C000C943C0070
:100020000C943C000C9443000C943C000C943C0059
:100030000C943C000C943C000C943C000C943C0050
:100040000C943C000C943C000C943C000C943C0040
:100050000C943C0011241FBECFE5D4E0DEBFCDBF21
:1000600010E0A0E6B0E001C01D92AD36B107E1F7A7
:100070000E94FA000C944F010C94000080E487B9B0
:1000800087E886B908951F920F920FB60F92112438
:100090008F939F93AF93BF9380916000882399F0D3
:1000A0008091650090916600A0916700B091680012
:1000B0000196A11DB11D8093650090936600A093E9
:1000C0006700B0936800BF91AF919F918F910F909F
:1000D0000FBE0F901F9018951F920F920FB60F92A0
:1000E00011242F933F934F935F936F937F938F933D
:1000F0009F93AF93BF93EF93FF9380916100909193
:100100006200A0916300B09164000097A105B10561
:1001100009F43FC080916000882381F481E08093DE
:1001200060001092650010926600109267001092B5
:10013000680083B7816083BF12BE2BC0109260003D
:1001400060916500709166008091670090916800F1
:1001500022B7982F872F762F6627620F711D811D7A
:10016000911D2AE330E040E050E00E942D01C901DA
:10017000DA018093690090936A00A0936B00B093BA
:100180006C00109261001092620010926300109255
:100190006400FF91EF91BF91AF919F918F917F91FB
:1001A0006F915F914F913F912F910F900FBE0F90E4
:1001B0001F90189512BA81E08A95F1F780EF82BB03
:1001C00081E090E0A0E0B0E0809361009093620055
:1001D000A0936300B093640083E08A95F1F712BAAC
:1001E000089580B390E08F709070892B11F08FEF9D
:1001F00085BB08950F931F93CF93DF9380EF81BB4F
:1002000012BA8FEF87BB18BA84BB85B7846085BFED
:100210008BB780688BBF89B7816089BF7894C8E944
:10022000DAE307E01FEF8091610090916200A091F6
:100230006300B09164000097A105B10531F4CE01CF
:100240000197F1F70E94DA0008BB80B390E08F704D
:100250009070892B41F315BBE6CFA1E21A2EAA1BA1
:10026000BB1BFD010DC0AA1FBB1FEE1FFF1FA21766
:10027000B307E407F50720F0A21BB30BE40BF50B63
:10028000661F771F881F991F1A9469F760957095EC
:10029000809590959B01AC01BD01CF010895F89424
:0202A000FFCF8E
:00000001FF
