:100000000C942A000C943C000C943C000C943C0092
:100010000C943C000C943C000C943C000C943C0070
:100020000C943C000C943C000C943C000C943C0060
:100030000C943C000C943C000C943C000C943C0050
:100040000C943C000C943C000C943C000C943C0040
:100050000C943C0011241FBECFE5D4E0DEBFCDBF21
:1000600010E0A0E6B0E001C01D92A436B107E1F7B0
:100070000E9466000C949C000C94000080E487B9F8
:1000800087E886B9089597B18770892B87B9369A22
:10009000349BFECF349A24B135B1C90108951BBAFF
:1000A00081E08A95F1F780EF8BBB81E090E0A0E0E2
:1000B000B0E08093600090936100A0936200B093E1
:1000C000630083E08A95F1F71BBA0895EF92FF92DF
:1000D0000F931F93CF93DF9380EF8ABB8FEF87BB84
:1000E00080E487B987E886B908E91AE390E8E92E41
:1000F00080E2F82E89B3C82FD0E0C170D07080E0C4
:100100000E94430087E00E9443008091600090912C
:100110006100A0916200B09163000097A105B10554
:1001200049F7C8010197F1F70E944F00219711F498
:0C013000F8BAE0CFE8BADECFF894FFCFB9
:00000001FF
