S01700004763634170706C69636174696F6E312E737265635B
S11300000C942A000C9447000C9447000C9447006D
S11300100C9447000C9447000C9447000C94470040
S11300200C9447000C9447000C9447000C94470030
S11300300C9447000C9447000C9447000C94470020
S11300400C9447000C9447000C9447000C94470010
S11300500C94470011241FBECFE5D4E0DEBFCDBF12
S113006010E0A0E6B0E0E8E8FBE002C005900D92E5
S1130070AE36B107D9F720E0AEE6B0E001C01D927C
S1130080AE37B207E1F70E9496020C94C2050C94B5
S1130090000080E487B987E886B9089597B1907E17
S11300A097B997B18770982B97B9369A349BFECF3E
S11300B0349A84B195B1089581EA8FBD83E08EBDF1
S11300C0B99ABA9A81B38F6081BB0895CF93811195
S11300D003C09098919809C0823019F49098919A2D
S11300E004C0813011F49198909ACFB7F89470E0DD
S11300F080E090E00E949E0420E030E04FE753E46B
S11301000E94F60320E030E048E453E40E945505E1
S11301100E946F0470E07BBD6ABDCFBFCF9108958C
S1130120CF93811103C09298939809C0823019F437
S11301309298939A04C0813011F49398929ACFB70D
S1130140F89470E080E090E00E949E0420E030E0AB
S11301504FE753E40E94F60320E030E048E453E420
S11301600E9455050E946F0470E079BD68BDCFBF41
S1130170CF91089581B3806F81BBB89A82B3806FA9
S113018082BBC09A08958630B0F496E0981B892FFC
S1130190913011F4C09A0895963068F442B38E5F9A
S11301A021E030E0B90102C0660F771F8A95E2F7BB
S11301B0CB01842B82BB08958630B8F496E0981B5B
S11301C0892F913011F4C0980895963070F442B399
S11301D08E5F21E030E0B90102C0660F771F8A9577
S11301E0E2F7CB018095842382BB0895882351F0E4
S11301F090E0E9EFF0E03197F1F700C000009F5F75
S11302009813F7CF08954F925F926F927F928F92D7
S11302109F92AF92BF92CF92DF92EF92FF926B01C7
S11302207C01CA01B901A70196010E9484036B01F4
S11302307C016091720070917300809174009091C0
S113024075000E94A0044B015C0120916A0030916A
S11302506B0040916C0050916D00C701B6010E9483
S113026055052B013C0120916600309167004091B7
S1130270680050916900C501B4010E9455059B01B5
S1130280AC01C301B2010E9485032B013C016091C2
S11302906E0070916F0080917000909171000E94C7
S11302A0A0049B01AC01C701B6010E948403209104
S11302B062003091630040916400509165000E9497
S11302C055059B01AC01C301B2010E9485032B01BA
S11302D03C01A5019401C701B6010E9485030E9457
S11302E06804609372007093730080937400909319
S11302F07500C701B6010E94680460936E00709394
S11303006F008093700090937100C301B201FF905D
S1130310EF90DF90CF90BF90AF909F908F907F90A1
S11303206F905F904F9008957F928F929F92AF92BB
S1130330BF92CF92DF92EF92FF920F931F93CF93CE
S1130340DF9384E00E944E008132934028F085E0E0
S11303500E94DC0001E004C085E00E94C30000E0CC
S113036083E00E944E008132934030F084E00E948A
S1130370DC00CC24C39404C084E00E94C300C12CDC
S113038082E00E944E008132934028F083E00E9474
S1130390DC0011E004C083E00E94C30010E081E0AF
S11303A00E944E008132934050F082E00E94DC00B3
S11303B080E00E944E008132934068F49FC082E046
S11303C00E94C30080E00E944E008132934008F4F2
S11303D08CC0C0E001C0C1E081E00E94DC00772451
S11303E073940AC0C11006C0002309F479C0C0E0A8
S11303F0712C02C0C0E0712CD0E0E12EF12CD12C84
S113040010E0672D70E080E090E00E949E044B01B4
S11304105C01BE01660F771F072E000C880B990B39
S11304200E94A0049B01AC01C501B4010E94850394
S11304304B015C01B701660F771F6E0D7F1D072E00
S1130440000C880B990B0E94A0049B01AC01C50110
S1130450B4010E9485034B015C01B601660F771F4E
S1130460660F771F072E000C880B990B0E94A004BF
S11304709B01AC01C501B4010E9485034B015C01E1
S1130480B801660F771F660F771F600F711F072E65
S1130490000C880B990B0E94A0049B01AC01C501C0
S11304A0B4010E9485034B015C01C70DD11DCE0D23
S11304B0DF1DB6016C0F7D1FE801C60FD71FBE01FB
S11304C0DD0F880B990B0E94A0049B01AC01C501B0
S11304D0B4010E94F603562F472F382F292F14C03A
S11304E050E040E03FE723E40FC081E00E94C300F6
S11304F0112309F477CFC0E0712C7ECF81E00E94F4
S1130500C300C1E0712C78CF652F742F832F922FF5
S1130510DF91CF911F910F91FF90EF90DF90CF90DB
S1130520BF90AF909F908F907F9008950E945C0041
S11305300E94BA000E944900C0E6D0E00E949401E3
S11305406B017C0120E030E04FE753E40E94F103AB
S1130550882349F0C0927A00D0927B00E0927C001C
S1130560F0927D0008C080927A0090927B00A09265
S11305707C00B0927D0060917A0070917B00809144
S11305807C0090917D0020E030E040E450E40E9443
S113059003016B017C016093760070937700809374
S11305A078009093790020E030E04FEF53E40E940C
S11305B0500518167CF480E090E0AFEFB3E480932C
S11305C0760090937700A0937800B09379006C0143
S11305D07D0134C020E030E04FEF53ECC701B60199
S11305E00E94F10388237CF480E090E0AFEFB3EC49
S11305F08093760090937700A0937800B09379006D
S11306006C017D0155C0C0907600D0907700E090D9
S11306107800F090790020E030E0A901C701B6012C
S11306200E94500518164CF520E030E04FE753E4E3
S1130630C701B6010E945005181674F420E030E09A
S11306404FE753E4C701B6010E9484030E946F047C
S113065081E00E9466000DC0A701960160E070E091
S11306608FE793E40E9484030E946F0482E00E9457
S113067066006FEF81E00E949000C0907600D090F9
S11306807700E0907800F090790020E030E0A90154
S1130690C701B6010E94F103181654F120E030E0BE
S11306A04FE753ECC701B6010E94F10388237CF4A1
S11306B020E030E04FE753E4C701B6010E94850310
S11306C090580E946F0482E00E9490000DC020E0C8
S11306D030E04FE753E4C701B6010E9485030E944E
S11306E06F0481E00E9490006FEF82E00E94660038
S11306F088810E94F60080907A0090907B00A09000
S11307007C00B0907D001ACF5058BB27AA270E94C6
S11307109C030C9416050E94080538F00E940F05EE
S113072020F039F49F3F19F426F40C9405050EF4D7
S1130730E095E7FB0C94FF04E92F0E94270558F38A
S1130740BA17620773078407950720F079F4A6F5B2
S11307500C9449050EF4E0950B2EBA2FA02D0B0135
S1130760B90190010C01CA01A0011124FF27591BF2
S113077099F0593F50F4503E68F11A16F040A22FF8
S1130780232F342F4427585FF3CF46953795279569
S1130790A795F0405395C9F77EF41F16BA0B620B68
S11307A0730B840BBAF09150A1F0FF0FBB1F661FAF
S11307B0771F881FC2F70EC0BA0F621F731F841FF2
S11307C048F4879577956795B795F7959E3F08F018
S11307D0B0CF9395880F08F09927EE0F97958795DA
S11307E008950E94DB0408F481E008950E940A043D
S11307F00C9416050E940F0558F00E94080540F05D
S113080029F45F3F29F00C94FF0451110C944A051C
S11308100C9405050E94270568F39923B1F3552329
S113082091F3951B550BBB27AA27621773078407FF
S113083038F09F5F5F4F220F331F441FAA1FA9F395
S113084035D00E2E3AF0E0E832D091505040E69583
S1130850001CCAF72BD0FE2F29D0660F771F881FE4
S1130860BB1F261737074807AB07B0E809F0BB0BD7
S1130870802DBF01FF2793585F4F3AF09E3F5105EB
S113088078F00C94FF040C944A055F3FE4F3983E1F
S1130890D4F3869577956795B795F7959F5FC9F7D4
S11308A0880F911D9695879597F90895E1E0660F55
S11308B0771F881FBB1F621773078407BA0720F0CE
S11308C0621B730B840BBA0BEE1F88F7E095089537
S11308D00E946F046894B1110C944A0508950E9413
S11308E02F0588F09F5798F0B92F9927B751B0F08A
S11308F0E1F0660F771F881F991F1AF0BA95C9F7A0
S113090014C0B13091F00E944905B1E008950C94EF
S11309104905672F782F8827B85F39F0B93FCCF3A2
S1130920869577956795B395D9F73EF4909580951C
S1130930709561957F4F8F4F9F4F0895E89409C03C
S113094097FB3EF490958095709561957F4F8F4FFE
S11309509F4F9923A9F0F92F96E9BB279395F69514
S1130960879577956795B795F111F8CFFAF4BB0F92
S113097011F460FF1BC06F5F7F4F8F4F9F4F16C0F6
S1130980882311F096E911C0772321F09EE8872F80
S1130990762F05C0662371F096E8862F70E060E03C
S11309A02AF09A95660F771F881FDAF7880F9695B5
S11309B0879597F90895990F0008550FAA0BE0E859
S11309C0FEEF16161706E807F907C0F0121613060D
S11309D0E407F50798F0621B730B840B950B39F44D
S11309E00A2661F0232B242B252B21F408950A26B3
S11309F009F4A140A6958FEF811D811D089597F9F3
S1130A009F6780E870E060E008959FEF80EC0895B0
S1130A1000240A94161617061806090608950024D9
S1130A200A9412161306140605060895092E039453
S1130A30000C11F4882352F0BB0F40F4BF2B11F4C7
S1130A4060FF04C06F5F7F4F8F4F9F4F089557FD26
S1130A509058440F551F59F05F3F71F04795880F28
S1130A6097FB991F61F09F3F79F0879508951216BF
S1130A7013061406551FF2CF4695F1DF08C016166B
S1130A8017061806991FF1CF86957105610508941C
S1130A900895E894BB2766277727CB0197F9089533
S1130AA00E94DB0408F48FEF08950E9468050C94FB
S1130AB016050E94080538F00E940F0520F09523C2
S1130AC011F00C94FF040C94050511240C944A05B0
S1130AD00E94270570F3959FC1F3950F50E0551FB1
S1130AE0629FF001729FBB27F00DB11D639FAA277F
S1130AF0F00DB11DAA1F649F6627B00DA11D661FCE
S1130B00829F2227B00DA11D621F739FB00DA11DEE
S1130B10621F839FA00D611D221F749F3327A00DA8
S1130B20611D231F849F600D211D822F762F6A2F44
S1130B3011249F5750409AF0F1F088234AF0EE0FA9
S1130B40FF1FBB1F661F771F881F91505040A9F7D6
S1130B509E3F510580F00C94FF040C944A055F3FBE
S1130B60E4F3983ED4F3869577956795B795F79512
S1130B70E7959F5FC1F7FE2B880F911D969587958A
S10B0B8097F90895F894FFCFE2
S1110B880A000000F042CDCC4C3E0000484371
S9030000FC
