:100000000C942A000C943C000C943C000C943C0092
:100010000C943C000C943C000C943C000C943C0070
:100020000C9458000C943C000C943C000C943C0044
:100030000C943C000C943C000C943C000C943C0050
:100040000C943C000C943C000C943C000C943C0040
:100050000C943C0011241FBECFE5D4E0DEBFCDBF21
:1000600010E0A0E6B0E001C01D92AC36B107E1F7A8
:100070000E943E000C9455010C9400001ABA8FEFB8
:1000800081BB82E0C89B02C082BBFCCF12BAFACF10
:10009000889AD0980895909881E0982F9A95F1F7D2
:1000A000909A94E09A95F1F790988A95F1F70895CF
:1000B0001F920F920FB60F9211248F939F93AF93BD
:1000C000BF938091600090916100A0916200B09117
:1000D00063000196A11DB11D8093600090936100A3
:1000E000A0936200B09363001DBC1CBCBF91AF9194
:1000F0009F918F910F900FBE0F901F901895EF92C8
:10010000FF920F931F93889AD0980E944B0023C0B0
:100110008091640090916500A0916600B0916700A5
:100120000196A11DB11D8093640090936500A0937A
:100130006600B09367008091640090916500A09183
:100140006600B0916700835E9147A040B04018F010
:100150002FEF3FEF63C0C89BDBCF1DBC1CBC8EB52F
:1001600081608EBD1092600010926100109262005A
:1001700010926300789422C06091600070916100D9
:100180008091620090916300ECB4FDB400E010E057
:100190002FEF3FEF40E050E00E941401E60EF71E03
:1001A000081F191F83EEE81681E7F80680E00807AC
:1001B00080E0180718F02EEF3FEF30C0C899DCCF71
:1001C0001EBCF894609160007091610080916200A3
:1001D00090916300ECB4FDB400E010E02FEF3FEF2E
:1001E00040E050E00E941401E60EF71E081F191FA0
:1001F000E0926800F092690000936A0010936B002F
:10020000609168007091690080916A0090916B0024
:100210002AE330E040E050E00E943301C9011F9121
:100220000F91FF90EF900895629FD001739FF001AE
:10023000829FE00DF11D649FE00DF11D929FF00D76
:10024000839FF00D749FF00D659FF00D9927729FAD
:10025000B00DE11DF91F639FB00DE11DF91FBD0138
:10026000CF0111240895A1E21A2EAA1BBB1BFD0188
:100270000DC0AA1FBB1FEE1FFF1FA217B307E40785
:10028000F50720F0A21BB30BE40BF50B661F771FDD
:10029000881F991F1A9469F76095709580959095BD
:0E02A0009B01AC01BD01CF010895F894FFCF82
:00000001FF
