:100000000C942A000C9434000C9434000C943400AA
:100010000C9434000C9434000C9434000C94340090
:100020000C9434000C9434000C9434000C94340080
:100030000C9434000C9434000C9434000C94340070
:100040000C9434000C9434000C9434000C94340060
:100050000C94340011241FBECFE5D4E0DEBFCDBF29
:100060000E9436000C944C000C9400008FEF87BB6C
:100070001ABA50E84FEF5BBB89B339B329B399B3D0
:1000800080FF08C031FF06C022FF04C093FF02C0FA
:0C00900048BBF1CF18BAEFCFF894FFCFB7
:00000001FF
